:020000040800F2
:10000000703F00209D01000895130008890D00082D
:100010009113000821080008FB21000800000000DF
:100020000000000000000000000000003D16000875
:1000300069090008000000002514000825180008C0
:10004000B7010008B7010008B7010008B7010008B0
:10005000B7010008B7010008B7010008B7010008A0
:10006000B7010008B7010008B7010008B701000890
:10007000B7010008B7010008B7010008B701000880
:10008000B7010008B7010008B7010008B701000870
:10009000B7010008B7010008B7010008B701000860
:1000A000B7010008B7010008B7010008B701000850
:1000B000B7010008B7010008B7010008B701000840
:1000C000B7010008B7010008B7010008B701000830
:1000D000B7010008F51E0008B7010008B7010008C5
:1000E000B7010008B7010008B7010008B701000810
:1000F000B7010008B7010008B7010008B701000800
:10010000B7010008B7010008B7010008B7010008EF
:10011000B7010008B7010008B7010008B7010008DF
:10012000B7010008B7010008B7010008B7010008CF
:10013000B7010008B7010008B7010008B7010008BF
:10014000B7010008B7010008B7010008B7010008AF
:10015000B7010008B7010008B7010008B70100089F
:10016000B7010008B7010008B7010008B70100088F
:10017000B7010008B7010008B7010008B70100087F
:10018000B7010008B7010008DFF80CD000F06CF8E8
:1001900000480047F5270008703F002006488047C8
:1001A00006480047FEE7FEE7FEE7FEE7FEE7FEE75C
:1001B000FEE7FEE7FEE7FEE7651800088901000894
:1001C000D2B201E000F8012B491EFBD27047002299
:1001D000F6E710B513460A4604461946FFF7F0FF46
:1001E000204610BD2DE9F05F0546002092469B4653
:1001F00088460646814640241BE02846414647463D
:10020000224600F020F853465A46C01A914110D3B6
:1002100011461846224600F039F82D1A67EB0108FE
:100220004F4622460120002100F030F817EB00096C
:100230004E41201EA4F10104DFDC484631462A4627
:100240004346BDE8F09F202A04DB203A21FA02F061
:100250000021704721FA02F3D040C2F12002914000
:100260000843194670470000064C074D06E0E06859
:1002700040F0010394E8070098471034AC42F6D3ED
:10028000FFF786FF1875000838750008202A04DB80
:10029000203A00FA02F1002070479140C2F1200399
:1002A00020FA03F31943904070470000FE480068AD
:1002B000002805DA0020FC4908600120FB4908609D
:1002C000F9480068092805DD0920F749086002207F
:1002D000F6490860F548006801287CD1F2480068BA
:1002E0000A2878DAF0480068002874DBF048EE4904
:1002F000096850F82100E8BBEE48006800EB4001B7
:10030000C1EB8010EC4901EB8001EC480068401E15
:1003100051F8200005280FD0E648006800EB4001A6
:10032000C1EB8010E44901EB8001E4480068401E05
:1003300051F82000062823D10520DE49096801EB89
:100340004102C2EB8111DC4A02EB8101DB4A1268F7
:1003500041F82200D9480068401ED84908600721AA
:10036000D448006800EB4002C2EB8010D24A02EB96
:10037000800000E004E0D14A126840F82210DBE07F
:10038000CB48C949096850F82100012843D1C94820
:10039000006800EB4001C1EB8010C74901EB800110
:1003A000C6480068401C51F8200005280FD0C148FD
:1003B000006800EB4001C1EB8010BF4901EB8001F8
:1003C000BE480068401C51F82000062823D10520B3
:1003D000B849096800E0B5E001EB4102C2EB8111C8
:1003E000B54A02EB8101B54A126841F82200B348D0
:1003F0000068401CB14908600721AE48006800EB66
:100400004002C2EB8010AC4A02EB8000AB4A12689B
:1004100040F8221090E0A648A349096850F821004E
:10042000022841D1A3480068401C00EB4001C1EB09
:100430008010A14901EB8000A049096850F8210013
:1004400005280FD09B480068401C00EB4001C1EB21
:100450008010994901EB80009849096850F8210003
:10046000062821D105219348006800EB4002C2EB29
:100470008010914A02EB8000904A126840F82210E6
:100480008C480068401C8B49086007218948006837
:1004900000EB4002C2EB8010874A02EB8000874AE3
:1004A000126840F8221047E081487F49096850F8F7
:1004B0002100032840D17F480068401E00EB400126
:1004C000C1EB80107C4901EB80007C49096850F841
:1004D000210005280FD077480068401E00EB40013E
:1004E000C1EB8010744901EB80007449096850F831
:1004F0002100062820D105216E48006800EB40024B
:10050000C2EB80106C4A02EB80006C4A126840F823
:10051000221068480068401E664908600721654847
:10052000006800EB4002C2EB8010634A02EB8000DF
:10053000624A126840F822105B480068401C5A4921
:10054000086041E1594800680228FAD1564800681D
:100550000A28F6DA544800680028F2DB5448524969
:10056000096850F82100E8BB5248006800EB4001E0
:10057000C1EB8010504901EB800150480068401CDD
:1005800051F8200005280FD04A48006800EB4001D0
:10059000C1EB8010484901EB800148480068401CCD
:1005A00051F82000062823D105204249096801EBB3
:1005B0004102C2EB8111404A02EB81013F4A1268BD
:1005C00041F822003D480068401C3C490860072073
:1005D0003849096801EB4102C2EB8111364A02EB4E
:1005E000810100E004E0354A126841F82200E6E0AB
:1005F0002F482D49096850F82100012841D12D4884
:10060000006800EB4001C1EB80102B4901EB800139
:100610002A480068401E51F8200005280FD02548C0
:10062000006800EB4001C1EB8010234901EB800121
:1006300022480068401E51F82000062821D10521DB
:100640001C48006800EB4002C2EB80101A4A02EB23
:1006500080001A4A126840F8221018480068401EAC
:100660001649086007201349096801EB4102C2EBF3
:100670008111114A02EB8101104A126841F82200EF
:100680009DE00B480849096850F8210002284ED126
:1006900008480068401C00EB4001C1EB801006498F
:1006A00001EB800005490BE0340000203000002001
:1006B000443B00202000002058000020240000209F
:1006C000096850F8210005280FD040480068401CF8
:1006D00000EB4001C1EB80103D4901EB80003D493A
:1006E000096850F82100062821D105213748006803
:1006F00000EB4002C2EB8010354A02EB8000354A25
:10070000126840F8221031480068401C2F490860E8
:1007100007212E48006800EB4002C2EB80102C4AF3
:1007200002EB80002B4A126840F8221047E02A486A
:100730002A49096850F82100032840D1234800685D
:10074000401E00EB4001C1EB8010214901EB80000D
:100750002049096850F8210005280FD01B4800687F
:10076000401E00EB4001C1EB8010194901EB8000F5
:100770001849096850F82100062820D1052013499E
:10078000096801EB4102C2EB8111114A02EB8101C0
:10079000104A126841F822000C480068401E0B49BC
:1007A000086007210948006800EB4002C2EB801096
:1007B000074A02EB8000074A126840F822100748F7
:1007C0000068401E054908607047000020000020B6
:1007D0005800002024000020443B0020340000206A
:1007E0001CB50121202000F01FFE01208DF804001F
:1007F0000002009003208DF8050000208DF806000F
:1008000001208DF807006946044800F05DF94FF4B7
:100810008071024800F0C3F91CBD000000140240C2
:1008200000BFFEE72DE9F04704460D464FF0000AF1
:10083000A046A94692E04FF0000A2946204600F063
:1008400009FB8246BAF1000F01D1BDE8F08705200F
:1008500004EB4401C1EB8411414A02EB810141F8F0
:100860002500A046A94677E00321002000F0BEFE47
:1008700007463E467EB9032C0DDBA01E00EB40016F
:10088000C1EB8010364901EB800050F825000128AB
:1008900001D1A41E3BE0012E11D1324800688442F0
:1008A0000DDCA01C00EB4001C1EB80102C4901EBDA
:1008B000800050F82500012801D1A41C27E0022E59
:1008C00012D128480068801EA8420DDB04EB4400CA
:1008D000C0EB8410224901EB8001A81C51F82000D4
:1008E000012801D1AD1C12E0032E0FD1032D0DDB29
:1008F00004EB4400C0EB8410194901EB8001A81EF1
:1009000051F82000012801D1AD1E00E024E00522AD
:1009100008EB040101EBD1735B1003EB430CCCEB50
:100920008313DFF83CC00CEB830309EB050000EBFD
:10093000D07C4FEA6C0C43F82C20052004EB4401DA
:10094000C1EB8411064A02EB810141F825002946DA
:100950002046FFF767FF00E086E700BF6BE7000077
:10096000580000201C0000207047000051B1820098
:10097000A2F1C042126842F001038200A2F1C0421B
:10098000136009E08200A2F1C0421268034B1A40D2
:100990008300A3F1C0431A6070470000FEFF0F0000
:1009A00030B50021002200230468A400A4F1C04453
:1009B0002168444C2140D0E901452C43C5682C43B3
:1009C00005692C4345692C4385692C43C5692C4333
:1009D000056A2C43456A2C43856A2C43C56A2C431F
:1009E000056B2C4321430468A400A4F1C04421609A
:1009F0008468082C0BD10468A400A4F1C0442468C6
:100A000044F040050468A400A4F1C04425600468D3
:100A1000641CA400A4F1C044226802F04042446B6C
:100A20002468456B6D6844EA0514456BAD6844EA7B
:100A30000524456BAD8944EA0544456B2D8A44EA9B
:100A40000554456B2D7D44EA0564456BAD692C4327
:100A500022430468641CA400A4F1C0442260C46A58
:100A6000B4F5804F24D10468A400A4F1C044D4F8A4
:100A7000043103F04043846B2468856B6D6844EA5D
:100A80000514856BAD6844EA0524856B2D8A44EA1C
:100A90000554856B2D7D44EA0564856BAD692C4357
:100AA00023430468A400A4F1C044C4F8043107E05F
:100AB0006FF070450468A400A4F1C044C4F8045168
:100AC00030BD00008000F7FFF0B50A46002100238A
:100AD000002400BF3DE0012505FA01F3156805EA91
:100AE00003049C4234D105684F000326BE40B54341
:100AF000056015794E00B5400668354305601579E7
:100B0000012D02D01579022D16D185684F000326DC
:100B1000BE40B543856055794E00B5408668354383
:100B20008560456801268E40B543456045689679E5
:100B30008E40B6B235434560C5684F000326BE40BF
:100B4000B543C560D5794E00B540C6683543C5602C
:100B5000491C1029BFD3F0BDF0B5002300244D0778
:100B6000ED0E02FA05F3CE1000F1200555F82650DF
:100B70004E07F70E0F26BE40B543CF1000F12006FA
:100B800046F82750CE1000F1200555F8265045EACA
:100B90000304CE1000F1200545F82640F0BD418346
:100BA00070470183704700002DE9F043ADF6041D46
:100BB000ADF5805D704804687048056800274FF403
:100BC000C85101A8FFF703FBB84619E04FF0000930
:100BD00011E008EB4800C0EB8810694901EB800088
:100BE00050F8290008EB880101AA02EB411141F8F5
:100BF000290009F10109B9F1280FEADB08F1010820
:100C0000B8F1280FE2DBAEE00321002000F0EEFC9B
:100C100006463EBB04EB840001A901EB4011681EAF
:100C200051F8200007281DD004EB840001A901EB36
:100C30004011681E51F82000052813D1072004EB4D
:100C4000840101AA02EB411141F825006D1E04EB5D
:100C5000840102EB411141F825004A4840F8276021
:100C60007F1C7CE0012E27D104EB840001A901EB5D
:100C70004011681C51F8200007281DD004EB8400A7
:100C800001A901EB4011681C51F82000052813D17F
:100C9000072004EB840101AA02EB411141F8250071
:100CA0006D1C04EB840102EB411141F8250035482D
:100CB00040F827607F1C52E0022E26D1601E00EB18
:100CC000800001A901EB401050F8250007281CD036
:100CD000601E00EB800001EB401050F82500052855
:100CE00013D1072004EB840101AA02EB411141F862
:100CF0002500641E04EB840102EB411141F825003C
:100D0000204840F827607F1C29E0032E26D1601C74
:100D100000EB800001A901EB401050F825000728E6
:100D20001CD0601C00EB800001EB401050F8250047
:100D3000052813D1072004EB840101AA02EB41111D
:100D400041F82500641C04EB840102EB411141F8D9
:100D500025000C4840F827607F1C00E003E00A2FC4
:100D600000DD01E000BF4FE700BF0DF6041D0DF5EB
:100D7000805DBDE8F08300002000002024000020FA
:100D800058000020443B002000BFFEE7F0B50546B8
:100D900000200021002200232C4C256000BF0FE022
:100DA00000230AE0002402EB4206C6EB8216284F1D
:100DB00007EB860646F823405B1C3D2BF2DB521CFA
:100DC0003D2AEDDB00201FE0002118E0064600EB85
:100DD000D6777F10A0EB470787B10C4601EBD4779D
:100DE0007F10A1EB47074FB1012400EB4006C6EB93
:100DF0008016174F07EB860646F82140491C134C16
:100E00002468A142E2DB401C104C2468A042DBDBDA
:100E1000002018E0002113E00C4C2468A04203DC01
:100E20000A4C2468A1420ADD4FF0FF3400EB400673
:100E3000C6EB8016064F07EB860646F82140491C94
:100E40003C29E9DB401C3C28E4DBF0BD1C00002011
:100E5000580000200246032A0BDB901E00EB4003E3
:100E6000C3EB80101D4B03EB800050F821000128DC
:100E70002FD01B480068801E90420BDB901C00EBBB
:100E80004003C3EB8010154B03EB800050F82100AA
:100E900001281ED003290BDB02EB4200C0EB8210BD
:100EA0000E4B03EB8003881E53F82000012810D05E
:100EB0000B480068801E88420DDB02EB4200C0EB4D
:100EC0008210064B03EB8003881C53F82000012896
:100ED00001D1012070470020FCE7000058000020ED
:100EE0001C0000201CB50121112000F09DFA0020FB
:100EF0008DF804001C20009001208DF80700694641
:100F00000748FFF7E1FD00208DF804000120009064
:100F100002208DF8070069460248FFF7D5FD1CBD89
:100F2000001002400000024010B50446012C01D11F
:100F3000224908702148007801282AD120480068F9
:100F400001280AD01F48006838B11E48001F0068F9
:100F500018B11C4808380068D8B90A2001F0D0FA46
:100F600000201649087016480068012800D110BDFD
:100F70001448006808B90220F9E71248001F006809
:100F800008B90320F3E70F4808380068A0B9042027
:100F9000EDE70B48006878B90A48006801280BD1D2
:100FA0000848001F0068012806D106480838006874
:100FB000012801D1014908700020D8E71A0000205B
:100FC000000240421002424270B506460F48408877
:100FD000401E83B20D480088401E82B200210846A0
:100FE00000F072F800240CE0002504E0304600F028
:100FF0009DF9681C85B205484088A842F6DC601C53
:1010000084B202480088A042EEDC70BD4C00002093
:1010100010B504460D4884715CB90021362000F0FB
:1010200075F94FF44870094948804FF4F070088012
:101030000AE06821362000F069F94FF4F0700349A6
:1010400048804FF44870088010BD00004C0000201C
:1010500070B504460D4616462B46224629462046C4
:1010600000F032F8304600F061F970BD2DE9F04330
:1010700004460D4616461F46DDF81C80B44201DCCE
:10108000BD4201DDBDE8F0833B463246294620469D
:1010900000F01AF8301B401C84B2781B401C85B24B
:1010A0000BE0A94602E0404600F040F9B9F100002B
:1010B000A9F101011FFA81F9F5D1201EA4F1010166
:1010C0008CB2EED100BFDDE770B504460D462A2094
:1010D00000F016F92646E11704EB1161C1F30F2069
:1010E00000F01EF9E11704EB11610912A4EB0121D4
:1010F00088B200F015F91646D11702EB1161C1F361
:101100000F2000F00DF91646D11702EB11610912FC
:10111000A2EB012188B200F003F92B2000F0F0F8D7
:101120002E46E91705EB1161C1F30F2000F0F8F826
:10113000E91705EB11610912A5EB012188B200F056
:10114000EFF81E46D91703EB1161C1F30F2000F031
:10115000E7F81E46D91703EB11610912A3EB012131
:1011600088B200F0DDF82C2000F0CAF870BD000055
:101170002DE9F84F80460E4617461C46B3462046DA
:10118000E31704EB5373DB1021464FEAE47C04EBD6
:101190005C7C4FEAEC0CA4EBCC0CBCF1000F02D051
:1011A0004FF0010C01E04FF0000C6344224604EBC9
:1011B000D27C4FEA6C0C03FB0CF3DBB20093A7F17B
:1011C0002000C7B2002556E00C2C07D107EB4700E2
:1011D0002B4901EB800010F8059013E0102C05D18D
:1011E000284800EB071010F805900BE0182C07D1E9
:1011F00007EBC700244901EB800010F8059001E0DF
:10120000BDE8F88F4FF0000A2FE009F0800030B100
:101210001E48028831464046FFF71AFF07E00A9849
:1012200028B91B48028831464046FFF711FF4FEAB4
:1012300049604FEA1069701C86B216484088B04277
:1012400000DCDDE7A6EB0B00A0420AD15E4608F108
:1012500001001FFA80F80F480088404500DCCFE706
:1012600006E00AF1010000F0FF0ABAF1080FCCDB3A
:1012700000BF681CC5B200988542A5DB00BFBFE770
:10128000002C000874300008643600084800002074
:101290004A0000204C0000202DE9F84704460D4686
:1012A00090469946DDE9096704F0FF0A08EB04005F
:1012B0001FFA80F809EB05001FFA80F916E0444593
:1012C00002DB5446A81985B24D4500DB14E000202E
:1012D00000903A78334629462046FFF749FF3046CA
:1012E00006EBD07104EB61018CB27F1C38787E284C
:1012F00002DC38782028E2DA00BFBDE8F887000079
:1013000001490880704700007E00006C00B503466C
:101310000A461846FFF7F4FF104600F001F800BD3A
:1013200001490880704700008000006C0149088076
:10133000704700008000006C1CB50121202000F0E7
:1013400073F801208DF804004002009003208DF80E
:10135000050000208DF8060001208DF80700694681
:101360000A48FFF7B1FB4FF400710848FFF719FC7A
:101370004FF48060009069460448FFF7A5FB4FF4E6
:1013800080610248FFF70DFC1CBD00000014024004
:1013900000BFFEE77047000070B5002100230F2258
:1013A000C4781CB3174C246804F4E064C4F5E0640A
:1013B000C4F30721C1F10404E3B20A4144789C401C
:1013C000E1B28478144021430C07210E0E4C0578BD
:1013D0006155047804F01F050124AC4005786D11B7
:1013E000AD0005F1E025C5F8004109E0047804F0FE
:1013F0001F050124AC40054D0678761145F82640BE
:1014000070BD00000CED00E000E400E080E100E0D1
:1014100002490143024A1160704700000000FA05CA
:101420000CED00E07047000029B1064A1268024343
:10143000044B1A6004E0034A12688243014B1A60AD
:10144000704700003038024029B1064A1268024352
:10145000044B1A6004E0034A12688243014B1A608D
:10146000704700003438024029B1064A126802432E
:10147000044B1A6004E0034A12688243014B1A606D
:10148000704700003838024029B1064A126802430A
:10149000044B1A6004E0034A12688243014B1A604D
:1014A0007047000044380240F0B5002100220024BB
:1014B000022500260223324F3F6807F00C0121B1BC
:1014C000042905D0082937D105E02E4F076036E002
:1014D0002D4F076033E02A4F3F1F3F68C7F3805608
:1014E000274F3F1F3F6807F03F036EB1264FB7FB02
:1014F000F3F7DFF88CC0ACF1040CDCF800C0CCF3DF
:10150000881C07FB0CF40CE01E4FB7FBF3F7DFF869
:1015100070C0ACF1040CDCF800C0CCF3881C07FBF5
:101520000CF4174F3F1F3F68C7F301477F1C7D0036
:10153000B4FBF5F7076002E0124F076000BF00BF81
:101540000F4F3F6807F0F0010909104F7A5C0768F8
:10155000D74047600A4F3F6807F4E051890A0B4FB4
:101560007A5C4768D7408760054F3F6807F4604161
:10157000490B064F7A5C4768D740C760F0BD000052
:10158000083802400024F40000127A000400002011
:1015900030B10749096841F00401054A116005E0CE
:1015A0000349096821F00401014A116070470000F5
:1015B0000008065001460020034A12680A400AB19A
:1015C000012000E000207047040806500148006830
:1015D000704700000808065010B500BF0120FFF753
:1015E000E9FF0028FAD0FFF7F1FF10BD70B50446FF
:1015F0000D46FFF7F1FF291B491CB0FBF1F201FB7F
:101600001200204470BD10B501214020FFF71CFFDF
:101610000120FFF7BDFF0AE0601C84B2642000F0E7
:10162000B1FF42F21070844201DB012010BD0120A5
:10163000FFF7C0FF0028EFD00020F7E77047000059
:1016400010B504462046FFF7A1FB01210846FFF72D
:1016500001FC01210846FFF7E5F80120194908605F
:10166000194908601DE0194801680420FFF7BEFF12
:1016700017490860154801680420FFF7B7FF1549AE
:1016800008601348006800EB4001C1EB801012496C
:1016900001EB80000F49096850F82100052800D1AE
:1016A00000E0E0E700BF07200949096801EB4102BB
:1016B000C2EB8111084A02EB8101064A126841F827
:1016C000220010BD2C000020280000201C0000205B
:1016D0002000002024000020580000200CB500202D
:1016E000019000903448006840F48030324908602E
:1016F00000BF3148006800F4003000900198401CA1
:101700000190009818B90198B0F5A04FF1D12A487E
:10171000006800F4003010B10120009001E00020CA
:1017200000900098012846D123484030006840F0DE
:1017300080502149403108602048006840F4404012
:101740001E4908601C48083000681B4908310860C1
:101750000846006840F4004008600846006840F40D
:10176000A05008601648091F0860081F006840F074
:101770008070091F086000BF0F48006800F000700B
:101780000028F9D040F205700E4908600A48083078
:10179000006820F003000849083108600846006826
:1017A00040F00200086000BF03480830006800F005
:1017B0000C000828F8D10CBD003802400070004031
:1017C00008544007003C02400948006800EB400113
:1017D000C1EB8010074901EB80000749096850F808
:1017E0002100032801D1012070470020FCE7000000
:1017F0002C0000205800002028000020042808D1D8
:101800004FF0E021096941F004014FF0E02211613D
:1018100007E04FF0E021096921F004014FF0E022D8
:10182000116170477047000010B504466FF0040066
:10183000FFF7E4FFE11704EB5171C1F3C701074A59
:1018400011701046007800EB4001C1EBC0104FF65C
:10185000FF7101EAC0000249088010BD1400002099
:101860001600002010B51548006840F470001349B8
:1018700008601348006840F001001149086000202A
:101880000F49083108600E4800680E4908400C49AD
:1018900008600D48091D0860081F006820F48020BA
:1018A000091F0860002006490C310860FFF716FF89
:1018B0004FF0006001498039086010BD88ED00E0FC
:1018C00000380240FFFFF6FE1030002400B59DB046
:1018D00001210846FFF7C8FD0F200790002008905F
:1018E0006020099000200A900B900C900D9015201C
:1018F0000090019005200290002003900490059034
:10190000069006200E9000200F901090102011904D
:101910000020129014901390159016904FF4805060
:101920001790002018904FF48040199000201A90D2
:1019300007A81B90CDF870D00EA8FFF731F8012151
:101940000620FFF713F81DB000BD00001CB50121F3
:101950007820FFF769FD01210220FFF765FD0C22C9
:101960000E216248FFF7F8F80C220F215F48FFF7BD
:10197000F3F80C2200215D48FFF7EEF80C2201215C
:101980005A48FFF7E9F80C2207215948FFF7E4F815
:101990000C2208215648FFF7DFF80C220921544891
:1019A000FFF7DAF80C220A215148FFF7D5F80C228C
:1019B0000B214F48FFF7D0F80C2211464C48FFF797
:1019C000CBF80C220D214A48FFF7C6F80C220E2155
:1019D0004748FFF7C1F80C220F214548FFF7BCF834
:1019E0000C2208214148FFF7B7F80C2209213F4893
:1019F000FFF7B2F80C220A213C48FFF7ADF80C22A1
:101A000004213A48FFF7A8F80C2205213748FFF7D0
:101A1000A3F80C2211463748FFF79EF80C22114616
:101A20003548FFF799F84CF23370009002208DF89A
:101A3000040000208DF8060003208DF80500012029
:101A40008DF8070069462948FFF73EF84FF6807089
:101A5000009002208DF8040000208DF8060003207D
:101A60008DF8050001208DF8070069462048FFF732
:101A70002BF84FF48050009002208DF804000020D5
:101A80008DF8060003208DF8050001208DF8070071
:101A900069461848FFF718F84FF48050009002206C
:101AA0008DF8040000208DF8060003208DF8050055
:101AB00001208DF8070069460F48FFF705F84FF43D
:101AC0000040009001208DF8040000208DF80600F1
:101AD00002208DF8050001208DF8070069460748AF
:101AE000FEF7F2FF0120064908601CBD000C024011
:101AF000001002400014024000180240000402409E
:101B0000BC82404210B5FFF721FFFFF7DFFE322015
:101B100000F0F6FCD320FFF7F3FBF0480088F04913
:101B20008880EE4800888880EC48008888800846D5
:101B300080884FF6FF7101EA0020E9498880084655
:101B400080884FF0D841B1F880100843E44988807C
:101B500008468188E3A000F053FBFF20FFF7D0FB8D
:101B6000FF20FFF7DDFB9820FFF7DAFB0620FFF7E9
:101B7000D7FBBA20FFF7C4FB6020FFF7D1FBBC20E6
:101B8000FFF7BEFB0320FFF7CBFB0E20FFF7C8FBE0
:101B90000320FFF7C5FB6320FFF7C2FB0120FFF71F
:101BA000BFFB0120FFF7BCFB1B20FFF7B9FB122096
:101BB000FFF7B6FB6F20FFF7B3FB0020FFF7B0FB8A
:101BC0000020FFF7ADFB0020FFF7AAFB0120FFF785
:101BD000A7FB0120FFF7A4FB0320FFF7A1FB0220D6
:101BE000FFF79EFBFF20FFF79BFBF220FFF798FB20
:101BF0000120FFF795FB0020FFF792FBC020FFF7C5
:101C00008FFBBD20FFF77CFB0220FFF789FB132031
:101C1000FFF786FB4520FFF783FB6720FFF780FB7C
:101C20004520FFF77DFB6720FFF77AFB0120FFF7D8
:101C300077FB2320FFF774FBBE20FFF761FB012039
:101C4000FFF76EFB2220FFF76BFB2220FFF768FBFC
:101C5000DC20FFF765FBBA20FFF762FB6720FFF788
:101C60005FFB2220FFF75CFB2220FFF759FB2220BD
:101C7000FFF756FBC720FFF743FB6620FFF750FB3B
:101C8000ED20FFF73DFB7F20FFF74AFB0F20FFF71A
:101C900047FB0020FFF744FBC020FFF731FB032088
:101CA000FFF73EFB0B20FFF73BFB0020FFF738FB65
:101CB000F520FFF725FB2020FFF732FB4320FFF73D
:101CC0002FFB0020FFF72CFBEE20FFF719FB0A206B
:101CD000FFF726FB1B20FFF723FB5F20FFF720FB0E
:101CE0004020FFF71DFB2820FFF71AFB3820FFF7E5
:101CF00017FB0220FFF714FB2B20FFF711FB5020EE
:101D0000FFF70EFB0020FFF70BFB8020FFF708FB1F
:101D1000FC20FFF7F5FA0820FFF702FBDF20FFF7B2
:101D2000EFFA0020FFF7FCFA0020FFF7F9FA002095
:101D3000FFF7F6FA0020FFF7F3FA0020FFF7F0FABA
:101D40002020FFF7EDFAF320FFF7DAFA7420FFF70F
:101D5000E7FAB420FFF7D4FA0220FFF7E1FA0220F5
:101D6000FFF7DEFA0220FFF7DBFAF720FFF7C8FAE9
:101D70008220FFF7D5FAB120FFF7C2FA0020FFF763
:101D8000CFFA1320FFF7CCFA1320FFF7C9FAF2209D
:101D9000FFF7B6FA4120FFF7C3FA0420FFF7C0FAB5
:101DA0004120FFF7BDFA2820FFF7BAFAC120FFF75C
:101DB000A7FA1720FFF7B4FA7820FFF7B1FA7B20D3
:101DC000FFF7AEFA2020FFF7ABFAE020FFF798FA12
:101DD0000020FFF7A5FA0220FFF7A2FA0C20FFF778
:101DE0009FFA0F20FFF79CFA1120FFF799FA1C20A9
:101DF000FFF796FAC820FFF793FA0720FFF790FA4B
:101E00000320FFF78DFA0820FFF78AFA0320FFF777
:101E100087FA0D20FFF784FA0C20FFF781FA3120B2
:101E2000FFF77EFA2C20FFF77BFA0020FFF778FA05
:101E3000E120FFF765FA0020FFF772FA0220FFF7B2
:101E40006FFA0820FFF76CFA0E20FFF769FA1220EC
:101E5000FFF766FA1720FFF763FA7C20FFF760FAB6
:101E60000A20FFF75DFA0320FFF75AFA0920FFF76F
:101E700057FA0620FFF754FA0C20FFF751FA0C200E
:101E8000FFF74EFA2E20FFF74BFA2A20FFF748FA09
:101E90000020FFF745FA3520FFF732FA0020FFF760
:101EA0003FFA3620FFF72CFAC020FFF739FA3A2024
:101EB000FFF726FA5520FFF733FA1120FFF720FA33
:101EC000782000F01DFB2920FFF71AFA0020FFF709
:101ED0009FF84FF6FF70FFF777F810BD8000006C99
:101EE0004C000020204C43442049443A25780D0AF8
:101EF0000000000010B540F225511D4800F0BAF86E
:101F000010B31B4800F070F9C4B21A48008800F4FE
:101F10000040C8B91748008800F4804060B10A2C1E
:101F200003D000201349088020E01248008840F4C4
:101F300000401049088019E00D2C06D10D4800889A
:101F400040F480400B49088010E00A480088C0F344
:101F50000D0009490C5407480088401C05490880B9
:101F600008460088C72801DD0020088010BD000059
:101F700000100140180000207C3A002010B588B005
:101F8000044601210846FFF74FFA01211020FFF710
:101F90007BFA072209212448FEF7DEFD07220A21E9
:101FA0002148FEF7D9FD4FF4C060069002208DF85D
:101FB0001C008DF81D0000208DF81E0001208DF8FA
:101FC0001F0006A91848FEF77FFD02940020ADF817
:101FD0000C00ADF80E00ADF81000ADF814000C20A8
:101FE000ADF8120002A9114800F094F801210F4841
:101FF00000F027F840210D4800F01AF8012240F2C5
:1020000025510A4800F060F825208DF804000320CF
:102010008DF805008DF8060001208DF8070001A855
:10202000FFF7BAF908B010BD0000024000100140EF
:1020300001F40072B2F5007F00D100BFCA430280F4
:10204000704721B1828942F40052828104E0828982
:102050004DF6FF731A408281704702460020B1F5A9
:10206000007F00D100BF13880B400BB1012000E0BE
:102070000020704770B50246002400230025002090
:1020800040F66A16B14200D100BFC1F3421501F01B
:102090001F03012606FA03F3012D02D1968933406E
:1020A00006E0022D02D1168A334001E0968A3340C1
:1020B0000C12012606FA04F41688344013B10CB150
:1020C000012000E0002070BDF0B50346002400268A
:1020D0000025002040F66A17B94200D100BF18461B
:1020E000C1F3421401F01F06012707FA06F5012C7F
:1020F00001D10C3004E0022C01D1103000E014308A
:102100001AB107682F43076002E00768AF43076012
:10211000F0BD00002DE9FF4705460E460024A1460C
:1021200000BFA046B08900B100BF2C8A24F44054FF
:10213000F08804432C82AC8941F20C608443B0885F
:1021400031890843718908430443AC81AC8A24F483
:102150004074B0890443AC826846FFF7A5F9204873
:10216000854202D01F48854202D1DDF80C9001E083
:10217000DDF80890A88900F4004040B109EBC900DF
:1021800000EB091031684900B0FBF1F707E009EBFB
:10219000C90000EB091031688900B0FBF1F7642039
:1021A000B7FBF0F004012009642101FB1078A88935
:1021B00000F4004040B1322000EBC800B0FBF1F069
:1021C00000F00700044308E0322000EB081064210F
:1021D000B0FBF1F000F00F0004432C81BDE8FF8755
:1021E000001001400014014001468888C0F3080037
:1021F0007047C1F308028280704700BFFEE700000D
:102200000FB4054B10B503A9044A029800F018F862
:1022100010BC5DF814FB0000D1250008540000201C
:1022200002E008C8121F08C1002AFAD1704770479F
:10223000002001E001C1121F002AFBD170470000FD
:102240002DE9FF4F8DB09B460F460446002606E061
:1022500025280BD05A460F999047641C761C20788D
:102260000028F5D111B03046BDE8F08F0025A84612
:102270000122984900E0054314F8013F203B02FA8F
:1022800003F00842F7D120782E2817D114F8010F57
:1022900045F004052A280ED06FF02F022078A0F117
:1022A000300109290AD808EB880102EB410100EB53
:1022B0000108641CF2E757F8048B641C20786C2832
:1022C0000DD004DC4C2812D06A2811D104E0742807
:1022D0000DD07A280CD10AE045F4001507E06178AA
:1022E00045F48015814202D1641C05F58015641CFB
:1022F0002278692A45D008DC002AB3D0582A69D050
:10230000632A10D0642A08D13BE0702A67D0732A70
:1023100013D0752A5CD0782A5CD010465A460F99A3
:102320009047761CD3E017F8040B8DF800000020CE
:102330008DF80100E946012003E057F8049B4FF0B7
:10234000FF3069074FF0000501D40AE06D1C4545D8
:102350000DDA8542FADB19F805100029F6D106E0FE
:102360006D1C8542FCDB19F805100029F8D12E44BC
:1023700004E019F8010B5A460F9990476D1EF8D2E8
:10238000A5E00A200021CDE90801C5F3025002288A
:102390000DD001CFC117031E71F100030DDA4FF00C
:1023A000000CD0EB0C006CEB01012D2308E0FF1DAD
:1023B00027F00707F7E80201EDE72B0504D52B23EB
:1023C0008DF8283001233BE0EB0739D02023F7E7D5
:1023D0000A2000E010200021CDE9080107E01020CC
:1023E000002145F00405CDE908014FF00808C5F3C8
:1023F000025002280FD001CF00214FF0000A2B0716
:102400001FD5702A0DD0DDE908C38CF0100C5CEAF2
:10241000030C0CD015E0FF1D27F00707F7E80201B9
:10242000EBE740228DF828204FF0010A0BE050EA3C
:10243000010306D030238DF828308DF8292002239F
:102440009A46582A04D024A20DF120090B9209E0E3
:1024500026A2F9E7DDE90823FDF7C4FE0B9B9B5C90
:1024600009F8013D50EA0102F4D1ADEB090020303A
:102470000890680701D44FF001080899884502DDEB
:10248000A8EB010000E000208046002506E00AA835
:102490005A46405D0F9990476D1C761C5545F6DBFA
:1024A00004E030205A460F999047761CB8F100019D
:1024B000A8F10108F5DC05E019F8010B5A460F995F
:1024C0009047761C0899481E08900029F4DC641C8B
:1024D000C5E6000009280100303132333435363783
:1024E0003839616263646566000000003031323360
:1024F0003435363738394142434445460000000000
:1025000070B504464FF4077094FBF0F0C6B24FF478
:10251000077094FBF0F100FB114085B205E04FF429
:10252000077000F009F8701EC6B2002EF7D115B181
:10253000284600F001F870BD0146114A12884A434E
:102540004FF0E0235A6100229A611A46126942F064
:1025500001021A6100BF4FF0E022106900F0010291
:102560001AB100F48032002AF5D04FF0E02212694F
:1025700022F001024FF0E0231A6100229A617047B5
:10258000160000200146114A12784A434FF0E0231A
:102590005A6100229A611A46126942F001021A61D8
:1025A00000BF4FF0E022106900F001021AB100F400
:1025B0008032002AF5D04FF0E022126922F00102A9
:1025C0004FF0E0231A6100229A6170471400002046
:1025D00070B504460D46E1B20548FFF70AFE00BF9C
:1025E00080210348FFF739FD0028F9D0204670BD4F
:1025F00000100140F8B506460024002502207A4963
:10260000C1F8F4000321B01E00EB4002C2EB8010C1
:10261000754A02EB8002701E42F8201000207349B8
:1026200008807348006808B9012000E00020704964
:1026300008600024CBE00025C4E004EB4400C0EBBC
:102640008410694901EB800050F82500A0B90020F2
:10265000C5EBC5074FF00E0C0CEB4703C4EBC407EA
:102660000CEB4702C5EBC5077900C4EBC40700902B
:102670007800FEF7FBFCA3E004EB4400C0EB841001
:10268000594901EB800050F82500022815D14FF67A
:10269000FF70C5EBC5074FF00E0C0CEB4703C4EB06
:1026A000C4070CEB4702C5EBC5077900C4EBC407B0
:1026B00000907800FEF7DAFC82E004EB4400C0EB07
:1026C0008410494901EB800050F82500032815D1FA
:1026D0004FF6FF70C5EBC5074FF00E0C0CEB470330
:1026E000C4EBC4070CEB4702C5EBC5077900C4EB8C
:1026F000C40700907800FEF7B9FC61E004EB4400E9
:10270000C0EB8410384901EB800050F82500052803
:1027100015D14FF6FF70C5EBC5074FF00E0C0CEB53
:102720004703C4EBC4070CEB4702C5EBC5077900B0
:10273000C4EBC40700907800FEF798FC40E004EB7F
:102740004400C0EB8410284901EB800050F82500BC
:10275000062815D14FF47840C5EBC5074FF0100C93
:102760000CEB4703C4EBC4070CEB4702C5EBC507F2
:102770007900C4EBC40700907800FEF777FC1FE0F7
:1027800004EB4400C0EB8410174901EB800050F8C3
:102790002500072814D14FF6E070C5EBC5074FF0B0
:1027A000100C0CEB4703C4EBC4070CEB4702C5EB62
:1027B000C5077900C4EBC40700907800FEF756FC0B
:1027C000681CC5B2B542FFF638AF601CC4B2B44253
:1027D000FFF631AF4FF478401C231A460E210090CB
:1027E0000846FEF743FCF8BD5800002048000020D2
:1027F000A88242421CB5A820FFF716F84FF4A0604B
:10280000FEF706FE4FF4E130FFF7B8FBFEF794FD4C
:10281000FFF778F9FEF7F7FEFEF764FBFDF7E0FF40
:102820003D490968481EFEF70BFF00F0B3F9FEF7BB
:10283000BBF939490878FFF7DDFE6CE09620FFF719
:102840005FFE002035490860FEF76EFB0446FDF789
:102850002DFD31490878FFF7CDFE052C30D2DFE899
:1028600004F02B030D17210001202C49086000F013
:1028700049F929490878FFF7BDFE21E001202749E1
:10288000086000F0F7F824490878FFF7B3FE17E076
:1028900001202249086000F05DF81F490878FFF721
:1028A000A9FE0DE001201D49086000F09BF81A49BF
:1028B0000878FFF79FFE03E001201849086000BF79
:1028C00000BFFEF781FF002825D015A01821CDE913
:1028D00000101E4843880288B4215020FEF7DCFC1B
:1028E0000D480068801C0C49086012E00020FEF7CB
:1028F0001BFB01280DD108490968481EFEF7A0FE00
:1029000013480088FEF760FB03490878FFF772FE62
:1029100000E0EBE700BF91E700000020A482424204
:10292000596F7520537563636565646564210A504A
:1029300072657373204B45595F555020746F206347
:102940006F6E74696E75652E000000004C000020EB
:102950004A0000202048006800EB4001C1EB8010D5
:102960001E4901EB80011E480068401C51F8200000
:1029700005280FD01848006800EB4001C1EB80101B
:10298000164901EB800116480068401C51F82000F0
:10299000032820D105201049096801EB4102C2EB50
:1029A00081110E4A02EB81010D4A126841F82200A2
:1029B0000B480068401C0A4908600620064909685F
:1029C00001EB4102C2EB8111044A02EB8101044A8E
:1029D000126841F8220070472C00002058000020A7
:1029E0002800002020480068401E00EB4001C1EB99
:1029F00080101E4901EB80001D49096850F8210034
:102A000005280FD018480068401E00EB4001C1EBBC
:102A10008010164901EB80001549096850F8210023
:102A2000032820D105201049096801EB4102C2EBBF
:102A300081110E4A02EB81010D4A126841F8220011
:102A400009480068401E08490860062106480068D9
:102A500000EB4002C2EB8010044A02EB8000044A03
:102A6000126840F8221070472C0000205800002007
:102A70002800002020480068401C00EB4001C1EB0A
:102A800080101E4901EB80001D49096850F82100A3
:102A900005280FD018480068401C00EB4001C1EB2E
:102AA0008010164901EB80001549096850F8210093
:102AB000032820D105201049096801EB4102C2EB2F
:102AC00081110E4A02EB81010D4A126841F8220081
:102AD00009480068401C084908600621064800684B
:102AE00000EB4002C2EB8010044A02EB8000044A73
:102AF000126840F8221070472C0000205800002077
:102B0000280000202048006800EB4001C1EB801045
:102B10001E4901EB80011E480068401E51F820004C
:102B200005280FD01848006800EB4001C1EB801069
:102B3000164901EB800116480068401E51F820003C
:102B4000032820D105201049096801EB4102C2EB9E
:102B500081110E4A02EB81010D4A126841F82200F0
:102B60000B480068401E0A490860062006490968AB
:102B700001EB4102C2EB8111044A02EB8101044ADC
:102B8000126841F8220070472C00002058000020F5
:102B9000280000201CB500200F4908800FA0182134
:102BA000CDE9001013484388028850210846FEF7FB
:102BB00073FB0DE00020FEF7B7F9012808D10E489D
:102BC0000088FEF701FA0D490878FFF713FD00E0D1
:102BD000F0E700BF1CBD00004800002050524553E4
:102BE00053204B45595F555020544F205354415268
:102BF000540000004C0000204A000020000000208B
:102C000000000000000000000000000000000000C4
:102C10003F40000000000000000030004000300095
:102C20004000000009000BC03D000BC03D00090042
:102C300018C024407FE0224031800000180024C0EA
:102C40001B000D803240018003801C4027401C8007
:102C5000074000401000600000000000000000007D
:102C60000000000000001F802040402000004020A5
:102C700020401F8000000000090006001F800600A1
:102C800009000000040004003F800400040000006C
:102C900000100060000000000000000004000400BC
:102CA00004000400040000000000004000000000D8
:102CB00000000000002001C00600380040000000B5
:102CC0001F802040204020401F8000000000104056
:102CD0003FC000400000000018C0214022402440B6
:102CE0001840000010802040244024401B80000039
:102CF00002000D0011003FC0014000003C80244054
:102D000024402440238000001F802440244034407D
:102D1000038000003000200027C0380020000000A1
:102D20001B802440244024401B8000001C0022C043
:102D3000224022401F8000000000000008400000E8
:102D4000000000000000000004600000000000001F
:102D5000000004000A001100208040400900090022
:102D60000900090009000000000040402080110017
:102D70000A0004001800200023402400180000006E
:102D80001F802040274029401F400000004007C00E
:102D900039000F0001C0004020403FC024402440C3
:102DA0001B8000001F802040204020403080000019
:102DB00020403FC0204020401F80000020403FC0F6
:102DC00024402E4030C0000020403FC024402E0050
:102DD000300000000F0010802040224033800200AD
:102DE00020403FC0040004003FC02040204020405D
:102DF0003FC02040204000000060202020203FC035
:102E00002000200020403FC024400B0030C0204064
:102E100020403FC020400040004000C03FC03C0078
:102E200003C03C003FC0000020403FC00C402300D6
:102E30003FC020001F802040204020401F80000015
:102E400020403FC024402400180000001F80214083
:102E5000214020E01FA0000020403FC02440260069
:102E600019C0004018C02440244022403180000096
:102E7000300020403FC020403000000020003F8054
:102E8000004000403F80200020003E0001C00700BD
:102E900038002000380007C03C0007C038000000A0
:102EA000204039C0060039C02040000020003840D2
:102EB00007C0384020000000304021C02640384084
:102EC00020C00000000000007FE040204020000003
:102ED000000070000C000380004000000000402053
:102EE00040207FE0000000000000200040002000A3
:102EF0000000000000100010001000100010001072
:102F000000000000400000000000000000000280FF
:102F10000540054003C0004020003FC0044004407D
:102F200003800000000003800440044006400000CD
:102F300000000380044024403FC0004000000380A4
:102F40000540054003400000000004401FC024402D
:102F500024402000000002E00550055006500420E7
:102F600020403FC00440040003C000400000044073
:102F700027C000400000000000100010041027E0EF
:102F80000000000020403FC00140070004C0044092
:102F9000204020403FC000400040000007C0040027
:102FA00007C0040003C00000044007C00440040040
:102FB00003C0004000000380044004400380000080
:102FC000041007F004500440038000000000038058
:102FD0000440045007F00010044007C00240040001
:102FE00004000000000006400540054004C0000049
:102FF000000004001F80044000400000040007801F
:103000000040044007C000400400070004C00180E5
:1030100006000400060001C0070001C00600000011
:10302000044006C0010006C0044000000410071060
:1030300004E00180060004000000044005C00640D2
:10304000044000000000000004007BE0402000007D
:10305000000000000000FFF0000000000000402021
:103060007BE00400000000004000800040002000E1
:1030700020004000000000000000000000000000F0
:10308000000000000000000000001FCC000C000049
:103090000000000000000800300060000800300060
:1030A00060000000022003FC1E20022003FC1E2002
:1030B0000220000000000E1811043FFF10840C785D
:1030C000000000000F0010840F3800C0077818843B
:1030D0000078000000780F8410C411240E9800E4DA
:1030E0000084000808006800700000000000000074
:1030F0000000000000000000000007E01818200495
:1031000040020000000040022004181807E0000000
:10311000000000000240024001800FF001800240E8
:10312000024000000080008000800FF800800080D6
:10313000008000000001000D000E000000000000F3
:1031400000000000000000800080008000800080FF
:10315000008000800000000C000C00000000000057
:10316000000000000000000600180060018006005A
:1031700018002000000007F00808100410040808D8
:1031800007F000000000080408041FFC000400040D
:103190000000000000000E0C1014102410441184D4
:1031A0000E0C000000000C18100411041104128809
:1031B0000C700000000000E00320042408241FFC21
:1031C0000024000000001F981084110411041088CE
:1031D00010700000000007F008881104110418881E
:1031E0000070000000001C00100010FC13001C0008
:1031F0001000000000000E381144108410841144A7
:103200000E38000000000700088C104410440888A5
:1032100007F00000000000000000030C030C000099
:103220000000000000000000000101060000000096
:103230000000000000000080014002200410080887
:10324000100400000220022002200220022002209E
:1032500002200000000010040808041002200140B1
:103260000080000000000E001200100C106C108096
:103270000F00000003E00C1813E4142417C40828FE
:1032800007D000000004003C03C41C40074000E4D9
:10329000001C000410041FFC1104110411040E880A
:1032A0000070000003E00C18100410041004100853
:1032B0001C10000010041FFC100410041004080867
:1032C00007F0000010041FFC1104110417C41004BF
:1032D0000818000010041FFC1104110017C0100092
:1032E0000800000003E00C181004100410441C78BF
:1032F0000040000010041FFC108400800080108437
:103300001FFC10040000100410041FFC1004100423
:103310000000000000030001100110011FFE10005A
:103320001000000010041FFC110403801464181C1A
:103330001004000010041FFC10040004000400042A
:10334000000C000010041FFC1F0000FC1F001FFCED
:103350001004000010041FFC0C04030000E010180F
:103360001FFC100007F008081004100410040808DF
:1033700007F0000010041FFC1084108010801080E3
:103380000F00000007F0081810241024101C080A71
:1033900007F2000010041FFC1104110011C01130CD
:1033A0000E0C000400000E1C110410841084104444
:1033B0001C3800001800100010041FFC100410003E
:1033C0001800000010001FF810040004000410048E
:1033D0001FF8100010001E0011E0001C0070138088
:1033E0001C0010001FC0103C00E01F0000E0103C5B
:1033F0001FC000001004180C163401C001C01634A0
:10340000180C100410001C00130400FC13041C0012
:10341000100000000804101C1064108413041C0425
:10342000101800000000000000007FFE4002400273
:1034300040020000000030000C0003800060001C0F
:103440000003000000004002400240027FFE000036
:10345000000000000000000020004000400040008C
:103460002000000000010001000100010001000136
:1034700000010001000040004000200000000000AA
:1034800000000000000000980124014401440144B0
:1034900000FC000410001FFC0088010401040088E7
:1034A00000700000000000700088010401040104A5
:1034B0000088000000000070008801040104110869
:1034C0001FFC0004000000F80144014401440144D1
:1034D00000C800000000010401040FFC11041104E5
:1034E00011001800000000D601290129012901C995
:1034F0000106000010041FFC00840100010001040B
:1035000000FC000400000104190419FC000400047C
:10351000000000000000000300010101190119FE74
:103520000000000010041FFC0024004001B4010C46
:10353000010400000000100410041FFC000400043B
:1035400000000000010401FC0104010001FC010471
:10355000010000FC010401FC0084010001000104E1
:1035600000FC0004000000F801040104010401044F
:1035700000F80000010101FF00850104010400883A
:1035800000700000000000700088010401040105C3
:1035900001FF00010104010401FC00840104010099
:1035A00001800000000000CC01240124012401243A
:1035B0000198000000000100010007F80104010467
:1035C00000000000010001F80004000400040108EC
:1035D00001FC0004010001800170000C001001607A
:1035E0000180010001F0010C003001C00030010C2D
:1035F00001F0010000000104018C00740170018CD5
:1036000001040000010101810171000E0018016038
:103610000180010000000184010C01340144018497
:10362000010C0000000000000000000001003EFC52
:10363000400240020000000000000000FFFF000008
:10364000000000000000400240023EFC01000000BB
:10365000000000000000600080008000400040008A
:10366000200020000000000000000000000000001A
:10367000000000000000000000000000000000004A
:10368000000000000000000000000000000000003A
:10369000000000000000000F80380FFE380F803857
:1036A000000000000000000000000000000000001A
:1036B00000000100000600000C000038000031008E
:1036C000000600000C000038000030000000000080
:1036D0000000000061800067F807F9800061800049
:1036E00061800061800061800067F807F9800061F7
:1036F0008000000000000000000001C0E003E0F0D6
:103700000630080418081FFFFE040E080787F003A0
:1037100081E000000000000001F000060C0004043D
:1037200008060C7001F9C0000E00003BE000EC1828
:10373000070808040C180003E00000000001E00086
:1037400007F003F818041C0804170807E1D003C0A9
:10375000E00023B0003C080020080000100000003A
:103760000000000100003100003200001C000000D9
:103770000000000000000000000000000000000049
:103780000000000000000000000000000000000039
:10379000000000007F0001FFC00780F00C0018103F
:1037A00000042000020000000000002000021000C1
:1037B000040C00180780F001FFC0007F000000002B
:1037C00000000000000000000000000000000000F9
:1037D0004200006600006600003C0000180003FF85
:1037E000C0001800003C00006600006600004200B7
:1037F00000000000080000080000080000080000A9
:10380000080001FFC00008000008000008000008D0
:10381000000008000000000000010000310000323C
:1038200000001C000000000000000000000000007C
:103830000000000000000000000000000800000878
:103840000000080000080000080000080000080050
:103850000008000008000008000000000000000050
:1038600000000000380000380000380000000000B0
:103870000000000000000000000000000000000048
:1038800000000000000600001C0000700001800025
:103890000E0000380000C0000700001C00003000CF
:1038A00000000000000000007F8001FFE003807046
:1038B00006001804000804000806001803807001C0
:1038C000FFE0007F80000000000000000000010019
:1038D0000801000801000803FFF807FFF8000008CE
:1038E00000000800000800000000000000000001C7
:1038F000C03802C0580400980401180402180404D7
:1039000018061C1803F81801E0F800000000000079
:1039100000000001C0E003C0F0040008040808042F
:10392000080806180803F41801E7F00001E0000099
:1039300000000000000000000300000D0000110066
:1039400000610000810803010807FFF80FFFF8007D
:1039500001080001080000000000000000E007FC72
:10396000D0060808061008061008061008061838C1
:10397000060FF00607C00000000000000000000075
:103980003F8001FFE003843002081804100804108F
:1039900008041008071810030FF00007C00000000B
:1039A00000000000000003C0000700000600000641
:1039B00000F80607F806180006E0000700000600F9
:1039C0000000000000000001E1E003F7F006341001
:1039D000041808041808040C08040C080616180338
:1039E000F3F001C1E000000000000000F80003FC5B
:1039F0003003063804020804020804020804041014
:103A00000308F001FFC0007F00000000000000007C
:103A1000000000000000000000000000703800708E
:103A200038007038000000000000000000000000B6
:103A30000000000000000000000000000000000086
:103A4000301A00301C0000000000000000000000E0
:103A5000000000000000000000000008000014004A
:103A6000002200004100008080010040020020048C
:103A700000100800080000000000000021000021E4
:103A80000000210000210000210000210000210091
:103A900000210000210000210000000000000000C3
:103AA000000008000804001002002001004000800F
:103AB0008000410000220000140000080000000007
:103AC00000000003C00004C0000400000800380823
:103AD0000F380808380810000C300007E00003C059
:103AE00000000000000000003F8000FFE003807045
:103AF000020F1006708804C088048308047F8802BF
:103B0000C09003012000FE400000080000180001E2
:103B1000F8003E0801C20007020007E20000FE00B4
:103B2000001FC80001F80000380000080400080762
:103B3000FFF807FFF8040808040808040808040848
:103B40000806180803F41801E7F00001E00000007F
:103B5000000000003F8001FFE003807002001804B5
:103B60000008040008040008040010060020078074
:103B7000C000000004000807FFF807FFF804000871
:103B800004000804000804001802001003807001FB
:103B9000FFE0007F8000000004000807FFF807FF37
:103BA000F8040808040808040808040808043E0883
:103BB0000400080600180100600000000400080767
:103BC000FFF807FFF80408080408000408000408C8
:103BD00000043E0006000006000001800000000016
:103BE000000000003F8001FFE00380700600180421
:103BF00000080402080402080203F00783F0000230
:103C00000000020004000807FFF807FFF804080896
:103C10000008000008000008000008000408080769
:103C2000FFF807FFF804000800000000000004008F
:103C30000804000804000807FFF807FFF80400085C
:103C4000040008040008000000000000000000005C
:103C50000006000007000001040001040001040048
:103C60000307FFFE07FFFC0400000400000400003F
:103C700004000807FFF807FFF8040C08001800000C
:103C80003E0004C7800503C80600F804003804009D
:103C90001800000804000807FFF807FFF8040008F0
:103CA00000000800000800000800000800000800EC
:103CB000001800006000000004000807FFF80780FB
:103CC0000807FC00007FC00003F80007C000780070
:103CD00007800807FFF807FFF8040008040008073A
:103CE000FFF807000803C00000E000003800001ED5
:103CF000000007000001C00400F007FFF804000006
:103D0000000000007F8001FFE003807006001804BF
:103D1000000804000806001803003001FFE0007FDF
:103D20008000000004000807FFF807FFF8040408FB
:103D3000040400040400040400040400060C00034E
:103D4000F80001F000000000000000007F8001FF8B
:103D5000E00380700600880400880400C806003C68
:103D600003003E01FFE6007F840000000400080716
:103D7000FFF807FFF8040808040800040C00040F0B
:103D800000040BC00610F003F03801E00800000842
:103D900000000001E0F803F03006301004180804B9
:103DA0001808040C08040C080206180207F0078122
:103DB000E000000001800006000004000004000094
:103DC00004000807FFF807FFF804000804000004D7
:103DD000000006000001800004000007FFE007FF6C
:103DE000F0040018000008000008000008000008A7
:103DF00000000804001007FFE004000004000006B3
:103E0000000007E00007FE00041FE00001F80000CA
:103E1000380001E0043E0007C00006000004000076
:103E200004000007E00007FFC0041FF80007C007F8
:103E3000F80007FF80043FF80007C004F8000700FF
:103E40000004000000000004000806001807C07805
:103E500005F1C8003E00001F800463E80780F806F3
:103E6000001804000800000004000006000007809D
:103E70000007E008047C08001FF80007F800180895
:103E800004E0080700000600000400000000000134
:103E900000080600380400F80403E8040F08047C56
:103EA0000805F00807C008070018040060000000BB
:103EB0000000000000000000000000000000003FC3
:103EC000FFFE20000220000220000220000220004D
:103ED00002000000000000000000080000070000D1
:103EE00000C0000038000006000001C000003000E3
:103EF000000E000001000000000000000000200093
:103F0000022000022000022000022000023FFFFEEB
:103F100000000000000000000000000000000000A1
:103F20000000000000080000100000300000200029
:103F30000030000010000008000000000000000039
:103F4000000001000001000001000001000001006C
:103F5000000100000100000100000100000100005C
:103F6000010000010000000000000000002000002F
:103F70002000001000001000000000000000000001
:103F800000000000000000000000000000F0001928
:103F9000F8001B180022080026080024080024103E
:103FA000003FF8001FF8000008000018000000049F
:103FB000000007FFF80FFFF000181800100800209D
:103FC00008002008003018001FF0000FC00000009B
:103FD0000000000007C0001FF0001830002008009B
:103FE0002008002008003C08001C100000600000B1
:103FF000000000000000000007C0001FF00038189B
:1040000000200800200800200804101007FFF80F07
:10401000FFF000001000000000000000000000079A
:10402000C0001FF0001230002218002208002208F1
:10403000003208001E10000E2000000000000000EA
:10404000200000200800200801FFF803FFF80620E8
:1040500008042008042008072000030000000000D6
:1040600000000000000E000E6E001FF30031B100D2
:1040700020B10020B1003191001F13002E1E00203E
:104080000E00300000000004000807FFF80FFFF8E2
:10409000001008002000002000002008003FF80069
:1040A0001FF80000080000000000000000000020D1
:1040B00008002008002008063FF8063FF800000826
:1040C00000000800000800000000000000000000E0
:1040D0000000000003000003002001002001002078
:1040E00003063FFE063FFC00000000000000000049
:1040F00000000004000807FFF80FFFF80001880027
:104100000300002FC00038F800203800200800000D
:10411000080000000000000000000400080400087F
:1041200004000807FFF80FFFF8000008000008006F
:104130000008000000000000002008003FF8003FD9
:10414000F8001008002000003FF8003FF8001008B9
:10415000002000003FF8003FF800000800000000C9
:104160002008003FF8003FF8001008001000002071
:1041700000002008003FF8001FF8000008000000C1
:104180000000000007C0000FF000183000300800E9
:104190002008002008003008001830000FF0000749
:1041A000C0000000000000002001003FFF003FFFB2
:1041B00000101100200900200800200800303800FD
:1041C0001FF0000FC00000000000000007C0001F2B
:1041D000F000381800200800200800200900101105
:1041E000001FFF003FFF000001000000002008004A
:1041F0002008002008003FF8003FF80008080010E1
:1042000008002008002000003000003000000000FE
:10421000000000000000000C78001E1800330800A9
:1042200023080021080021880021980030F0003880
:1042300060000000000000002000002000002000BE
:1042400000FFF003FFF8002008002008002008000D
:104250000030000000000000000000002000003FCF
:10426000F0007FF80000180000080000080020108F
:10427000003FF8007FF00000100000000000000088
:104280002000003000003C00003F800023F00000D0
:1042900078000070002380003C0000300000200007
:1042A000002000003C00003FE00023F80000E00098
:1042B0002700003E00003FE00021F80001E0003E42
:1042C000000020000000000020080020080038380E
:1042D000003E680027800003C8002CF80038380032
:1042E000201800200800000000000000200000301E
:1042F00003003C01003F830023EC0000700023809A
:10430000003C000020000020000000000000000031
:1043100000000038080020380020F80023E8002FB3
:1043200088003E08003808002018000070000000D7
:10433000000000000000000000000000000000007D
:1043400008000014001FF7FC3000062000020000E7
:10435000000000000000000000000000000000005D
:10436000000000000000FFFFFF0000000000000050
:10437000000000000000000000000000000020001D
:10438000023000061FF7FC001400000800000000C7
:104390000000000000000000000000000000001805
:1043A00000006000004000004000002000001000FD
:1043B000000800000400000400000C0000100000D1
:1043C00000000000000000000000000000000000ED
:1043D00000000000000000000000000000000000DD
:1043E00000000000000000000000000000000000CD
:1043F00000000000000000000000000000000000BD
:1044000000000000000000000000000000000000AC
:10441000000000000000000000000000000000009C
:10442000000000000000000000000000000000008C
:10443000000000000000000000000000000000007C
:10444000000000000000000000000000000000006C
:10445000000000000000000007F000C007FFE1E0DE
:1044600007F001E0000000C00000000000000000B4
:10447000000000000000000000000000000000003C
:10448000000000000000000000000000000000002C
:10449000000000000000000000000000000000001C
:1044A000000000000000000000000000000000000C
:1044B00000000000000000000000000000000000FC
:1044C00000000000000000000020000001C000000B
:1044D000078000001F0000001E0000001C200000DC
:1044E00001C00000078000001F0000001E00000047
:1044F0001C000000000000000000000000000000A0
:1045000000000000000000000000000000000000AB
:10451000000000000000000000000000000000009B
:10452000000000000000000000000000000000008B
:10453000000000000000000000000000000000007B
:104540000000000000180C0000180C0000180FE01C
:10455000001FFC0003F80C0000180C0000180C00F1
:1045600000180C0000180C0000180FE0001FFC00E1
:1045700003F80C0000180C0000180C0000000000EC
:10458000000000000000000000000000000000002B
:10459000000000000000000000000000000000001B
:1045A000000000000000000000000000000000000B
:1045B00000000000000000000000000000000000FB
:1045C000000000000000000000000780007807C025
:1045D00000FC0640010E002003070020020380209B
:1045E0000FFFFFFC0201C0200200E06001307040BC
:1045F00001F03F8000F01F000000000000000000FC
:1046000000000000000000000000000000000000AA
:10461000000000000000000000000000000000009A
:10462000000000000000000000000000000000008A
:10463000000000000000000000000000000000007A
:1046400000FE000001FF0000030180000200806006
:10465000030181C001FF070000FE18000000E00018
:104660000003BF00000CFFC00071806001C100208A
:10467000030180600000FFC000003F000000000058
:10468000000000000000000000000000000000002A
:10469000000000000000000000000000000000001A
:1046A000000000000000000000000000000000000A
:1046B00000000000000000000000000000000000FA
:1046C00000001F0000007FC000FCC0C001FF806030
:1046D0000303E0200202782002061E2003FC0740AC
:1046E00001F00380000103C000011C600001E02014
:1046F00000010020000100400000018000000000D7
:1047000000000000000000000000000000000000A9
:104710000000000000000000000000000000000099
:104720000000000000000000000000000000000089
:104730000000000000000000000000000000000079
:1047400000000000002000001C6000001C40000071
:104750001F8000000F0000000000000000000000AB
:104760000000000000000000000000000000000049
:104770000000000000000000000000000000000039
:104780000000000000000000000000000000000029
:104790000000000000000000000000000000000019
:1047A0000000000000000000000000000000000009
:1047B00000000000000000000000000000000000F9
:1047C00000000000000000000000000000000000E9
:1047D0000000000000000000000000000007F800DA
:1047E000003FFF00007807C001C000E00300003078
:1047F000040000080800000410000002000000008F
:1048000000000000000000000000000000000000A8
:104810000000000000000000000000000000000098
:104820000000000000000000000000000000000088
:104830000000000000000000000000000000000078
:10484000000000001000000208000004040000083E
:104850000300003001C000E0007807C0003FFF0007
:104860000007F80000000000000000000000000049
:104870000000000000000000000000000000000038
:104880000000000000000000000000000000000028
:104890000000000000000000000000000000000018
:1048A0000000000000000000000000000000000008
:1048B00000000000000000000000000000000000F8
:1048C0000000000000000000000C1800000E38007E
:1048D000000E3800000630000003600000614380D5
:1048E00000FFFF800061430000036000000630000D
:1048F000000E3800000E3800000C18000000000008
:1049000000000000000000000000000000000000A7
:104910000000000000000000000000000000000097
:104920000000000000000000000000000000000087
:104930000000000000000000000000000000000077
:104940000000000000000000000080000000800067
:104950000000800000008000000080000000800057
:10496000007FFF0000008000000080000000800049
:1049700000008000000080000000800000000000B7
:104980000000000000000000000000000000000027
:104990000000000000000000000000000000000017
:1049A0000000000000000000000000000000000007
:1049B00000000000000000000000000000000000F7
:1049C0000000000000000001000000E3000000E221
:1049D000000000FC00000078000000000000000063
:1049E00000000000000000000000000000000000C7
:1049F00000000000000000000000000000000000B7
:104A000000000000000000000000000000000000A6
:104A10000000000000000000000000000000000096
:104A20000000000000000000000000000000000086
:104A30000000000000000000000000000000000076
:104A400000000000000080000000800000008000E6
:104A50000000800000008000000080000000800056
:104A60000000800000008000000080000000800046
:104A700000008000000080000000800000000000B6
:104A80000000000000000000000000000000000026
:104A90000000000000000000000000000000000016
:104AA0000000000000000000000000000000000006
:104AB00000000000000000000000000000000000F6
:104AC0000000000000000000000000C0000001E045
:104AD000000001E0000000C0000000000000000035
:104AE00000000000000000000000000000000000C6
:104AF00000000000000000000000000000000000B6
:104B000000000000000000000000000000000000A5
:104B10000000000000000000000000000000000095
:104B20000000000000000000000000000000000085
:104B30000000000000000000000000000000000075
:104B4000000000000000000C00000038000000E041
:104B50000000038000000E00000038000000E000AC
:104B600000038000000E00000038000000E000009C
:104B7000038000000E00000018000000000000008C
:104B80000000000000000000000000000000000025
:104B90000000000000000000000000000000000015
:104BA0000000000000000000000000000000000005
:104BB00000000000000000000000000000000000F5
:104BC0000000000000000000000FF800007FFF0060
:104BD00000F00780018000C0030000600200002098
:104BE000020000200200002003000060018000C0DD
:104BF00000E00380007FFF00000FF80000000000CD
:104C000000000000000000000000000000000000A4
:104C10000000000000000000000000000000000094
:104C20000000000000000000000000000000000084
:104C30000000000000000000000000000000000074
:104C400000000000000000000000000000800020C4
:104C500000800020008000200080006001FFFFE055
:104C600003FFFFE0000000600000002000000020C3
:104C70000000002000000000000000000000000014
:104C80000000000000000000000000000000000024
:104C90000000000000000000000000000000000014
:104CA0000000000000000000000000000000000004
:104CB00000000000000000000000000000000000F4
:104CC0000000000000000000007800E00098016093
:104CD000010002600200046002000860020010602F
:104CE00002002060020040600300806001830060D9
:104CF00001FE00E0007C07800000000000000000D2
:104D000000000000000000000000000000000000A3
:104D10000000000000000000000000000000000093
:104D20000000000000000000000000000000000083
:104D30000000000000000000000000000000000073
:104D4000000000000000000000F0078001F007C034
:104D500001000040020000200201002002010020AA
:104D600002010020030380200186804001FCC0C0B6
:104D700000787F8000001E0000000000000000009E
:104D80000000000000000000000000000000000023
:104D90000000000000000000000000000000000013
:104DA0000000000000000000000000000000000003
:104DB00000000000000000000000000000000000F3
:104DC000000000000000080000003800000048005B
:104DD0000001880000060800000C081000300810D0
:104DE0000040081001FFFFF003FFFFF003FFFFF09A
:104DF000000008100000081000000810000000006B
:104E000000000000000000000000000000000000A2
:104E10000000000000000000000000000000000092
:104E20000000000000000000000000000000000082
:104E30000000000000000000000000000000000072
:104E4000000000000000000000000780001F8640F6
:104E500003E10020030200200304002003040020DB
:104E6000030400200304002003060040030301C0E4
:104E70000301FF8003007E0000000000000000002E
:104E80000000000000000000000000000000000022
:104E90000000000000000000000000000000000012
:104EA0000000000000000000000000000000000002
:104EB00000000000000000000000000000000000F2
:104EC00000000000000000000007FC00003FFF00A1
:104ED0000070C380008180C00101006003020020D7
:104EE0000202002002020020020200200203004011
:104EF00001C180C000C0FF8000007E0000000000F3
:104F000000000000000000000000000000000000A1
:104F10000000000000000000000000000000000091
:104F20000000000000000000000000000000000081
:104F30000000000000000000000000000000000071
:104F4000000000000000000000F0000003C00000AE
:104F50000380000003000000030007E003003FE0BF
:104F60000301C000030600000318000003600000F6
:104F700003800000030000000000000000000000AB
:104F80000000000000000000000000000000000021
:104F90000000000000000000000000000000000011
:104FA0000000000000000000000000000000000001
:104FB00000000000000000000000000000000000F1
:104FC0000000000000001F0000783F8000FC60C06F
:104FD000018EC040030780200203002002018020D0
:104FE000020180200201C0200301E040018670C060
:104FF00000FC3F8000781F0000000000000000005F
:1050000000000000000000000000000000000000A0
:105010000000000000000000000000000000000090
:105020000000000000000000000000000000000080
:105030000000000000000000000000000000000070
:1050400000000000003F000000FF81C001C0C1C09F
:105050000100602002002020020020200200202009
:1050600002002060020040C00100C18000C18F002A
:10507000007FFE00001FF0000000000000000000A4
:105080000000000000000000000000000000000020
:105090000000000000000000000000000000000010
:1050A0000000000000000000000000000000000000
:1050B00000000000000000000000000000000000F0
:1050C00000000000000000000000000000000000E0
:1050D0000000000000000000000300C0000781E0A5
:1050E000000781E0000300C0000000000000000095
:1050F00000000000000000000000000000000000B0
:10510000000000000000000000000000000000009F
:10511000000000000000000000000000000000008F
:10512000000000000000000000000000000000007F
:10513000000000000000000000000000000000006F
:10514000000000000000000000000000000000005F
:105150000000000000000000000600660006007865
:10516000000000000000000000000000000000003F
:10517000000000000000000000000000000000002F
:10518000000000000000000000000000000000001F
:10519000000000000000000000000000000000000F
:1051A00000000000000000000000000000000000FF
:1051B00000000000000000000000000000000000EF
:1051C0000000000000000000000080000001C0009E
:1051D0000003600000063000000C180000180C00EE
:1051E000003006000060030000C0018001000040A4
:1051F0000200002004000010000000000000000079
:10520000000000000000000000000000000000009E
:10521000000000000000000000000000000000008E
:10522000000000000000000000000000000000007E
:10523000000000000000000000000000000000006E
:105240000000000000041000000410000004100022
:1052500000041000000410000004100000041000FE
:1052600000041000000410000004100000041000EE
:1052700000041000000410000004100000000000F2
:10528000000000000000000000000000000000001E
:10529000000000000000000000000000000000000E
:1052A00000000000000000000000000000000000FE
:1052B00000000000000000000000000000000000EE
:1052C00000000000000000000400001002000020A8
:1052D0000100004000C001800060030000300600B3
:1052E00000180C00000C18000006300000036000DD
:1052F0000001C0000000800000000000000000006D
:10530000000000000000000000000000000000009D
:10531000000000000000000000000000000000008D
:10532000000000000000000000000000000000007D
:10533000000000000000000000000000000000006D
:1053400000000000000000000078000001F80000EC
:105350000238000002000000040000C0040079E0F0
:10536000040081E0040100C0040300000202000008
:105370000306000001FC000000F80000000000002F
:10538000000000000000000000000000000000001D
:10539000000000000000000000000000000000000D
:1053A00000000000000000000000000000000000FD
:1053B00000000000000000000000000000000000ED
:1053C00000000000000FF800003FFE0000700780A2
:1053D00000C000C00101F8400307FC20021E0420A9
:1053E0000230082002203020023FFC20013F044010
:1053F00001800CC000E03180001FC20000000000EE
:10540000000000000000000000000000000000009C
:10541000000000000000000000000000000000008C
:10542000000000000000000000000000000000007C
:10543000000000000000000000000000000000006C
:105440000000002000000060000003E000003E209B
:105450000003E020003E200003E020000380200045
:1054600007FC2000003FE0000003FE2000003FE0BA
:10547000000001E00000002000000020000000000B
:10548000000000000000000000000000000000001C
:10549000000000000000000000000000000000000C
:1054A00000000000000000000000000000000000FC
:1054B00000000000000000000000000000000000EC
:1054C00000000000020000200200002003FFFFE0B7
:1054D00003FFFFE002010020020100200201002082
:1054E00002010020020100200303002001868060E9
:1054F00001FCC0C000F87F8000001F000000000019
:10550000000000000000000000000000000000009B
:10551000000000000000000000000000000000008B
:10552000000000000000000000000000000000007B
:10553000000000000000000000000000000000006B
:10554000000000000007F800003FFF000070078027
:1055500000C000C001000040030000200200002045
:105560000200002002000020020000200100004094
:10557000018000C003C00180003006000000000070
:10558000000000000000000000000000000000001B
:10559000000000000000000000000000000000000B
:1055A00000000000000000000000000000000000FB
:1055B00000000000000000000000000000000000EB
:1055C00000000000020000200200002003FFFFE0B6
:1055D00003FFFFE002000020020000200200002084
:1055E000020000200300006001000040018000C0B4
:1055F00000F00780007FFE00000FF80000000000B0
:10560000000000000000000000000000000000009A
:10561000000000000000000000000000000000008A
:10562000000000000000000000000000000000007A
:10563000000000000000000000000000000000006A
:1056400000000000020000200200002003FFFFE035
:1056500003FFFFE002010020020100200201002000
:10566000020100200201002002038020020FE0203E
:105670000300006003C000E00060030000000000C1
:10568000000000000000000000000000000000001A
:10569000000000000000000000000000000000000A
:1056A00000000000000000000000000000000000FA
:1056B00000000000000000000000000000000000EA
:1056C00000000000020000200200002003FFFFE0B5
:1056D00003FFFFE0020100200201002002010000A0
:1056E000020100000201000002010000020380002C
:1056F000030FE0000300000003C000000060000092
:105700000000000000000000000000000000000099
:105710000000000000000000000000000000000089
:105720000000000000000000000000000000000079
:105730000000000000000000000000000000000069
:10574000000000000007F800003FFE000070078026
:1057500001C001C001000040030000200200002041
:105760000200002002000020010020200100204053
:1057700003C03F8000303F80000020000000200078
:105780000000000000000000000000000000000019
:105790000000000000000000000000000000000009
:1057A00000000000000000000000000000000000F9
:1057B00000000000000000000000000000000000E9
:1057C000020000200200002003FFFFE003FFFFE0D3
:1057D0000200802002008020000080000000800085
:1057E00000008000020080200200802003FFFFE014
:1057F00003FFFFE002000020020000200000000084
:105800000000000000000000000000000000000098
:105810000000000000000000000000000000000088
:105820000000000000000000000000000000000078
:105830000000000000000000000000000000000068
:105840000000000000000000000000000200002036
:1058500002000020020000200200002003FFFFE001
:1058600003FFFFE0020000200200002002000020F1
:105870000200002000000000000000000000000006
:105880000000000000000000000000000000000018
:105890000000000000000000000000000000000008
:1058A00000000000000000000000000000000000F8
:1058B00000000000000000000000000000000000E8
:1058C000000000000000000E0000000F0000000FAC
:1058D00000000001020000010200000102000003BC
:1058E0000200000603FFFFFC03FFFFF802000000B8
:1058F00002000000020000000200000000000000A2
:105900000000000000000000000000000000000097
:105910000000000000000000000000000000000087
:105920000000000000000000000000000000000077
:105930000000000000000000000000000000000067
:1059400000000000020000200200002003FFFFE032
:1059500003FFFFE00200C0200201002000078000DA
:10596000000FE0000030F80002603E2003800F20AE
:10597000030003E0020000E002000020000000201D
:105980000000000000000000000000000000000017
:105990000000000000000000000000000000000007
:1059A00000000000000000000000000000000000F7
:1059B00000000000000000000000000000000000E7
:1059C00000000000020000200200002003FFFFE0B2
:1059D00003FFFFE002000020020000200000002082
:1059E0000000002000000020000000200000002037
:1059F00000000060000000E0000003000000000064
:105A00000000000000000000000000000000000096
:105A10000000000000000000000000000000000086
:105A20000000000000000000000000000000000076
:105A30000000000000000000000000000000000066
:105A4000020000200200002003FFFFE003E000202E
:105A500003FF0020001FF0000001FF8000000FE0A6
:105A600000001E000003E000003E002003E00020D4
:105A700003FFFFE003FFFFE0020000200200002020
:105A80000000000000000000000000000000000016
:105A90000000000000000000000000000000000006
:105AA00000000000000000000000000000000000F6
:105AB00000000000000000000000000000000000E6
:105AC000020000200200002003FFFFE0038000200E
:105AD00003F0002000FC0000001F00000007C000D1
